{
  "contractName": "Will",
  "abi": [
    {
      "inputs": [],
      "payable": true,
      "stateMutability": "payable",
      "type": "constructor"
    },
    {
      "constant": true,
      "inputs": [],
      "name": "deceased",
      "outputs": [
        {
          "internalType": "bool",
          "name": "",
          "type": "bool"
        }
      ],
      "payable": false,
      "stateMutability": "view",
      "type": "function"
    },
    {
      "constant": true,
      "inputs": [],
      "name": "fortune",
      "outputs": [
        {
          "internalType": "uint256",
          "name": "",
          "type": "uint256"
        }
      ],
      "payable": false,
      "stateMutability": "view",
      "type": "function"
    },
    {
      "constant": true,
      "inputs": [],
      "name": "owner",
      "outputs": [
        {
          "internalType": "address",
          "name": "",
          "type": "address"
        }
      ],
      "payable": false,
      "stateMutability": "view",
      "type": "function"
    },
    {
      "constant": false,
      "inputs": [
        {
          "internalType": "address payable",
          "name": "wallet",
          "type": "address"
        },
        {
          "internalType": "uint256",
          "name": "amount",
          "type": "uint256"
        }
      ],
      "name": "setInheritance",
      "outputs": [],
      "payable": false,
      "stateMutability": "nonpayable",
      "type": "function"
    },
    {
      "constant": false,
      "inputs": [],
      "name": "hasDeceased",
      "outputs": [],
      "payable": false,
      "stateMutability": "nonpayable",
      "type": "function"
    }
  ],
  "bytecode": "0x6080604052336000806101000a81548173ffffffffffffffffffffffffffffffffffffffff021916908373ffffffffffffffffffffffffffffffffffffffff160217905550346001819055506000600260006101000a81548160ff02191690831515021790555061039b806100756000396000f3fe608060405234801561001057600080fd5b50600436106100575760003560e01c8063177de89c1461005c57806372faf2d91461007a57806388d515941461009c5780638da5cb5b146100ea578063eddcca9914610134575b600080fd5b61006461013e565b6040518082815260200191505060405180910390f35b610082610144565b604051808215151515815260200191505060405180910390f35b6100e8600480360360408110156100b257600080fd5b81019080803573ffffffffffffffffffffffffffffffffffffffff16906020019092919080359060200190929190505050610157565b005b6100f2610205565b604051808273ffffffffffffffffffffffffffffffffffffffff1673ffffffffffffffffffffffffffffffffffffffff16815260200191505060405180910390f35b61013c61022a565b005b60015481565b600260009054906101000a900460ff1681565b60048290806001815401808255809150509060018203906000526020600020016000909192909190916101000a81548173ffffffffffffffffffffffffffffffffffffffff021916908373ffffffffffffffffffffffffffffffffffffffff1602179055505080600360008473ffffffffffffffffffffffffffffffffffffffff1673ffffffffffffffffffffffffffffffffffffffff168152602001908152602001600020819055505050565b6000809054906101000a900473ffffffffffffffffffffffffffffffffffffffff1681565b6001600260006101000a81548160ff02191690831515021790555061024d61024f565b565b60008090505b600480549050811015610363576004818154811061026f57fe5b9060005260206000200160009054906101000a900473ffffffffffffffffffffffffffffffffffffffff1673ffffffffffffffffffffffffffffffffffffffff166108fc60036000600485815481106102c457fe5b9060005260206000200160009054906101000a900473ffffffffffffffffffffffffffffffffffffffff1673ffffffffffffffffffffffffffffffffffffffff1673ffffffffffffffffffffffffffffffffffffffff168152602001908152602001600020549081150290604051600060405180830381858888f19350505050158015610355573d6000803e3d6000fd5b508080600101915050610255565b5056fea265627a7a72315820f68fa6aa76f51f6ddd1c044c8363084e8880ccc7dfb63ea4e025c6721c7c72fb64736f6c63430005100032",
  "source": "// SPDX-License-Identifier: MIT\npragma solidity ^0.5.0;\n\ncontract Will{\n    address public owner;\n    uint public fortune;\n    bool public deceased;\n\n    constructor() public payable{\n        owner = msg.sender;\n        fortune = msg.value;\n        deceased = false;\n    }\n\n    modifier isDeceased{\n        require(deceased == true);\n        _;\n    }\n\n    modifier onlyOwner{\n        require(msg.sender == owner);\n        _;\n    }\n\n    mapping(address => uint) inheritance;\n    address payable []  familyWallet;\n\n    function setInheritance(address payable wallet,uint amount) public{\n        familyWallet.push(wallet);\n        inheritance[wallet] = amount;\n    }\n\n    function payout() private {\n        for(uint i = 0;i < familyWallet.length;i++){\n            familyWallet[i].transfer(inheritance[familyWallet[i]]);\n        }\n    }\n\n    function hasDeceased() public{\n        deceased = true;\n        payout();\n    }\n\n}",
  "sourcePath": "/Users/mac/Desktop/otnelson/will/will/will/contracts/Will.sol",
  "compiler": {
    "name": "solc",
    "version": "0.5.16+commit.9c3226ce.Emscripten.clang"
  },
  "schemaVersion": "3.2.3",
  "updatedAt": "2023-10-31T20:18:05.002Z",
  "networkType": "ethereum",
  "devdoc": {
    "methods": {}
  },
  "userdoc": {
    "methods": {}
  }
}